:020000040000FA
:1000000030110020A9010000393200003B3200000D
:1000100000000000000000000000000000000000E0
:100020000000000000000000000000003D32000061
:1000300000000000000000003F32000041320000DC
:10004000493200004B3200004D3200004F320000B8
:1000500051320000BB010000BB0100005332000020
:100060005532000057320000593200005B32000068
:100070005D32000077320000793200007B320000F0
:100080007D3200007F3200008132000083320000A8
:100090008532000087320000893200008B32000078
:1000A0008D3200008F32000000F002F800F050F8AE
:1000B0000CA030C8083824182D18A246671EAB467D
:1000C00054465D46AC4201D100F042F87E460F3EF8
:1000D0000FCCB6460126334200D0FB1AA246AB46EF
:1000E000334318473442000054420000103A02D310
:1000F00078C878C1FAD8520701D330C830C101D5C9
:1001000004680C60704700000023002400250026CE
:10011000103A01D378C1FBD8520700D330C100D5C3
:100120000B60704710B5642902D103F027F910BDA8
:10013000782902D103F058F910BD732902D103F0D8
:1001400013FF10BD002010BD1FB51FBD10B510BDA1
:1001500003F036FF1146FFF7F7FF02F0E1FD03F071
:100160004EFF03B4FFF7F2FF03BC03F038F80000C2
:1001700070B505460C46164602E00FCC0FC5103E82
:10018000102EFAD2082E02D303CC03C5083E042E4B
:1001900007D301CC01C5361F03E021782970641C08
:1001A0006D1C761EF9D270BD07488047074800478E
:1001B000FEE7FEE7FEE7FEE7FEE7FEE70448054947
:1001C000054A064B70470000F7010000A900000037
:1001D0003009002030110020300D0020300D0020AB
:1001E0000E48006870470D48406870470B480C493E
:1001F00041600160704770B50A48816B0A4A11611D
:10020000C06B0A4C60600A4D022000F074F80120B7
:1002100000F068F86561FFF7E9FF70BD000000209D
:1002200000127A0080FD030000120041001000411E
:10023000000102004121090602220028086801D0BD
:10024000904300E010430860704741210906486070
:1002500070471549012008704121090688607047E0
:1002600011480178012905D10021017041200006C3
:10027000C06880B27047412109060222002808693F
:1002800001D0104300E090430861704700204121F5
:1002900009060969C90700D00120704701204121E2
:1002A0000906C861704700000800002070479549A2
:1002B000002801D0012001E00120C0430860704700
:1002C0009049002802D00120C04300E001200861CD
:1002D00070478C49002801D0012001E00120C04373
:1002E000886170478749002801D0012001E0012082
:1002F000C043C86170478349022802D001200862C8
:1003000070470120C043FAE77E49012802D0022845
:1003100000D00320086370477A49002804D00128E0
:1003200002D0022800D0032048637047754940314D
:10033000002804D0012802D0022800D00320086041
:10034000704770494031002804D0012802D00228AB
:1003500000D00320486070476A494031002804D02B
:10036000012802D0022800D00320086270476549A6
:100370004031002804D0012802D0022800D00320F8
:10038000486270475F4A80014032002904D0012949
:1003900002D0022900D00321126B11507047594A34
:1003A0008001403200290CD001290AD0022908D04E
:1003B000032906D0042904D0052902D0062900D03B
:1003C0000721526B115070474E4A8001803200293C
:1003D00004D0012902D0022900D00321126B115050
:1003E0007047484A8001803200290CD001290AD088
:1003F000022908D0032906D0042904D0052902D0F7
:10040000062900D00721526B115070473E49002841
:1004100004D0012802D0022800D0032008637047CE
:10042000394900280DD001280BD0022809D0032219
:10043000032808D0042806D0052804D0062802D0B6
:100440000720486370474A6370472F49002800D04F
:100450000120C86370472C494031002804D001288E
:1004600002D0022800D0032008607047264940319E
:1004700000280DD001280BD0022809D00322032820
:1004800008D0042806D0052804D0062802D007206A
:10049000486070474A6070471B494031002804D0CB
:1004A000012802D0022800D00320086170471649B5
:1004B00000224031002803D0012803D0022801D0B7
:1004C0004A617047486170470F4A40320028106AFD
:1004D00002D00123184301E04008400010620220CE
:1004E0000029116A01D0014300E081431162704785
:1004F000054940310863704703484030006BC0B283
:100500007047000000100041001100418023C21814
:100510000029816803D019438160012003E09943D9
:1005200081600120C0431060704710B5044600216F
:10053000FFF7ECFF002020602021A160A06110BD2A
:1005400030B50C4605460021FFF7E0FF2068286023
:10055000AA68207941064020002901DA024300E020
:10056000824361790C204B07002B02DA824304207E
:1005700003E0090703D582430820024300E08243D9
:10058000A07981070220002901DA024300E08243BA
:10059000E079C00702D00120024301E05208520076
:1005A000AA6030BD0068704701607047806970477D
:1005B0008161704720220029816801D0114300E049
:1005C0009143816070474069C0B270470121C160AA
:1005D0007047000030B5BA4B21248D006406EB183B
:1005E000A04201D11A6030BD43242406A04201D1AB
:1005F0001A6430BDB24B112480338900A406C91897
:10060000A04201D10A6030BD0A6430BD30B5AD4BA7
:1006100021248D006406EB18A04201D11A6030BD80
:1006200043242406A04201D11A6430BDA54B1124F5
:1006300080338900A406C918A04201D10A6030BDE8
:100640000A6430BD70B504469F4810266061606240
:10065000E062606345200006844200D10526002543
:10066000A9B200222046FFF7D1FFA9B206222046F8
:10067000FFF7B0FF6D1CB542F2D370BD10B5904AC4
:1006800021238C005B06A218984201D1106810E06B
:1006900043231B06984201D1106C0AE0884A1123BB
:1006A000803289009B068918984201D1086800E0D1
:1006B000086CC0B210BDF0B50E46452100251027CC
:1006C00009068446884200D1052701242046316866
:1006D000A8400140814244D13179012961460ED0C0
:1006E0004861A9B26046FFF7C9FFB168CA439207E3
:1006F0000ED0CA0705D08008800020430AE00861B8
:10070000EFE78A0704D5800880000222104301E049
:10071000800880004A0702D50422104301E0FB2232
:1007200010400A0702D50822104301E0F7221040CA
:100730008A0602D52022104301E0DF22104049063C
:1007400002D54021084301E0BF2108400446327B26
:10075000A9B26046FFF75AFFA9B222466046FFF7EA
:1007600039FF6D1CBD42B0D3F0BDFF2101600021F7
:1007700001710622826001737047024612680020F0
:100780000A4200D001207047006880B270470246DC
:10079000526800200A4200D001207047406880B2B1
:1007A0007047494AFF2905D80906890D0818012113
:1007B000890204E0090A890008180121C9024018C9
:1007C000026070470022FF2905D80906890D081824
:1007D0000121890204E0090A890008180121C902DF
:1007E00040180260704730B50023374CFF2906D807
:1007F0000125AD0205E0046030BD036030BD012578
:10080000ED020906890D08184019002AF5D0F2E713
:100810004160704742684A404260704770B5452267
:10082000002410251206904200D1052501263346EA
:100830000A68A3401A409A420BD10B79DB0701D01A
:10084000826200E0C2624B79DB0701D0026300E004
:100850004263641CAC42EAD370BDFF2101600121F8
:10086000017141717047002A01D0016270474162F5
:1008700070470246926B00200A4200D00120704768
:100880008163704710B50F4A21238C005B06A218C4
:10089000984201D1106810E043231B06984201D111
:1008A000106C0AE0074A1123803289009B068918E0
:1008B000984201D1086800E0086CC0B210BD000089
:1008C0000030004100200041FFFF000010B58749C3
:1008D000032300221B02122488420BD10A604A60C3
:1008E0000A624A628A62CA620B634C638A637F4807
:1008F00040300BE07E4802604260026242628262E7
:10090000C26203634463826379484030426082601C
:1009100010BDF8B50446006B0D464008400020634A
:10092000FFF75EFC73494A690121914002F0CFFE56
:1009300007462868000103F069FA0646384603F0C6
:1009400065FA314603F06EF9064603F01BFA0746D6
:1009500003F05CFA314603F0B9FB062103F05AFAC2
:1009600003F036F90022644B03F0DEF803F00CF9D3
:100970006762A062E06AEE218843A988EA88114391
:100980002A8902431143E162206B5C49AA8908402D
:100990006989114301432163F8BDE12149020160E6
:1009A000602181800021C1800322018112024281E5
:1009B000818170470029016B02D00122114301E0BF
:1009C000490849000163704710B5C36A10242343E6
:1009D000C3621143416310BDC16A10229143C162D9
:1009E0007047C16A01221143C16270474448002127
:1009F00041608160C1600161704710B50446FFF736
:100A0000EFFB214602F063FE3D49086110BD3C4901
:100A10000028886802D00322104301E0800880008B
:100A2000886070470246926900200A4200D0012087
:100A3000704710B50B46044620212046FFF7F2FF11
:100A40000128F9D0236010BD006880B270472C499E
:100A50004A68D207FCD1086070472948006880B214
:100A60007047002A826B01D00A4300E08A43826308
:100A700070470246126C00200A4200D001207047E5
:100A8000426C0A43426470470246526800200A42A0
:100A900000D00120704789B241607047184A002990
:100AA000916801D0014300E0814391607047144A8E
:100AB0000146526800200A4200D0012070471049C8
:100AC0004A6802434A6070470D4A0146D2680020D6
:100AD0000A4200D0012070470949C8607047826C03
:100AE0000A438264074908200860704700C000403C
:100AF00000D00040401100410000E03FFE3CFFFFFD
:100B00000060004000E100E000787047017070472D
:100B100030B5002405E00D19ADB2455D1555641CD6
:100B2000A4B29C42F7D330BD70B5002405E00E1985
:100B3000155DB6B28555641CA4B29C42F7D370BD56
:100B400070B514000FD0274A83049E18F26840073E
:100B500095B2254AC00A10430A4623462946FFF7A4
:100B6000E3FF2819F06070BD70B514000FD01D4A66
:100B700083049E18B26A400795B21C4AC00A10430B
:100B80000A4623462946FFF7C3FF2819B06270BD05
:100B900070B5140015D0134A83049E18B26A40073A
:100BA00095B2124AC00A10430A4623462946FFF767
:100BB000AFFF022C01D9022000E00020201A4019CA
:100BC000B06270BD10B500290BD0064A83049B1893
:100BD0009A6A4007054CC00A5118204389B2081888
:100BE000986210BD00020146000002460000034664
:100BF00010B5844CA068218801616188FFF7D1FDA0
:100C00000A2000F0F6F86188A068FFF7DBFD0A20F3
:100C100000F0EFF810BD70B50E462021891B88400A
:100C20000546784C18E02188A068002D02DAFFF70D
:100C3000B8FD01E0FFF7C6FD0A2000F0DAF8618890
:100C4000A068FFF7AEFD0A2000F0D3F86188A06825
:100C5000FFF7B8FD6D00761E002EE4D170BDF8B52B
:100C600004460D4600202021C043FFF7D4FF042195
:100C70000620FFF7D0FF05212046FFF7CCFF052116
:100C80002846FFF7C8FF5F4CA168208848610A200A
:100C900000F0AFF86188A068FFF783FD0A2000F03C
:100CA000A8F86188A068FFF78DFD0A2000F0A1F880
:100CB00000252E466F006188A068FFF772FD0A20AC
:100CC00000F097F86188A068FFF77CFD0A2000F02B
:100CD00090F82188A068FFF750FD3843761C054640
:100CE000102EE7D3FFF784FF2846F8BD70B5044601
:100CF0000D4600202021C043FFF78DFF0421052071
:100D0000FFF789FF3F4805214068FFF784FF052171
:100D10002046FFF780FF02210846FFF77CFF1021E5
:100D20002846FFF778FFFFF763FF70BD0121C90375
:100D30000020DBE7F0B5334C85B0A06061802280F5
:100D40003148009001256846057164200290002119
:100D500068460173432069460006FFF7ACFC6088D3
:100D60002188084300906846057102200290684679
:100D700005736946A068FFF79EFCE9030020FFF7B2
:100D8000B5FF0026214F354601212846FFF767FFB2
:100D9000002804D0B84202D00126656003E06D1C33
:100DA000EDB2082DF0D3304605B0F0BD10B51548B2
:100DB000002401214068FFF752FF400700D50124BD
:100DC000204610BD002809D0012809D002280AD0E9
:100DD00003280BD021210902002087E70021FBE72F
:100DE000FF210131F8E701210903F5E7012149035A
:100DF000F2E701B5002001E000BF401C00998842E5
:100E0000FAD308BD0C000020103C0000FFFF0000DA
:100E100030B5837801210278002B15D094080E4B51
:100E2000A400E41823689207D50EFF22AA4093433A
:100E300042789207120EAA401A4322600078C00638
:100E4000C00E8140054804E0D006C00E8140034832
:100E50008030016030BD000000E400E000E100E00F
:100E600070B50446082802D30020C04370BDFA487C
:100E7000A604301805461021FFF748FE2846FFF764
:100E800043FE0028FAD1F4481F2118303018FFF72C
:100E90003DFEF24801218288A1408A438280F04AC7
:100EA000002061005052ED49891D0855EA48203064
:100EB00034182046FFF728FE0028FAD1012070BD23
:100EC000F8B51C4616460F460546082802D30020F2
:100ED000C043F8BD012F06D0022F04D0042F02D04A
:100EE0000420C043F8BD6007810FDE48FAD1002C12
:100EF0000CD0012F02D0022F08D103E021210C4297
:100F0000F0D003E0A10601D52106EBD52846FFF776
:100F1000A7FF21090901D0483943AF041038381818
:100F2000FFF7F4FD002E0AD1CC48CF4A0688711C89
:100F300089B20180914202D1032189030180C64810
:100F4000F03038184661C448012138180646FFF7CA
:100F5000DDFD3046FFF7D8FD0028FAD1BF48E10794
:100F6000C90F4288A9401143418001218288A940CC
:100F70008A438280BA4A002069005052B749891DCD
:100F80004855B54820303C182046FFF7BDFD0028E5
:100F9000FAD068B2F8BD70B50646082802D3002022
:100FA000C04370BDAC48B40410382018FFF7ACFD46
:100FB0000007000F012802D00420C04370BDA648DE
:100FC000203020180546FFF79FFD132802D002208D
:100FD000C04370BDA048022120180446FFF796FDCB
:100FE0002046FFF791FD0028FAD12846FFF78CFD37
:100FF000142805D03046FFF733FF0320C04370BDEF
:10100000012070BDF7B50D460746082802D3002021
:10101000C043FEBD9048BC0410382018FFF774FD93
:101020000007000F012802D00420C043FEBD8A48FB
:10103000203020180646FFF767FD132802D0022053
:10104000C043FEBD29786A7808028018AA78000299
:101050008018EA7800028018421C32D0002830D074
:101060000298002830D081482018FFF74FFD7F48B4
:101070006978401E2018FFF749FD7C48A978801E3A
:101080002018FFF743FD7948E978C01E2018FFF7C4
:101090003DFD764902982739611808626E4804219F
:1010A00020180546FFF732FD2846FFF72DFD0028E2
:1010B000FAD16A4901204988B84008421CD0002072
:1010C000FEBD0B20C043FEBD0A20C043FEBD284626
:1010D000FFF71AFD000708D55F48082118302018CF
:1010E000FFF714FD0C20C043FEBD3046FFF70CFD9A
:1010F000002804D1001FFEBD574810302518304687
:10110000FFF702FD1728E2D10120FEBD70B50646AB
:10111000082802D30020C04370BD4F48B5041038E2
:101120002818FFF7F1FC0007000F012802D0042067
:10113000C04370BD4848082128180446FFF7E6FC64
:101140002046FFF7E1FC0028FAD1444901208A88B3
:10115000B04082438A80498808420CD0002070BD8C
:101160002046FFF7D1FC00070BD53046FFF778FE8D
:101170000C20C04370BD384810302C183648203041
:101180002D182846FFF7C0FC0028E9D1012070BDCA
:10119000F7B582B002981446082803D30020C04354
:1011A00005B0F0BD86042C4810383018FFF7ACFCB1
:1011B0000007000F012802D00420C043F0E7002CF4
:1011C0000CD02548203030180190FFF79DFC1728DF
:1011D00007D01C2805D00620C043E1E70D20C043FE
:1011E000DEE7029801251D4F8540B888054211D0E1
:1011F000194810303018FFF787FCC006C00EC10632
:1012000021D51548102118303018FFF77FFCB88819
:10121000A843B8801548D93030180090FFF774FC07
:101220008006000C844200D904460098406887B2CA
:101230000198FFF769FC17281AD01C2818D00298CB
:10124000FFF70EFEC7E7000718D50298FFF708FE64
:101250000C20C043A4E70000100001461800002045
:10126000A8000020FAFFFFFFF0FF00002701014661
:10127000FE484088054203D0BC4201D900208FE7D8
:10128000BC42D2D8224603990298FFF759FCF8488D
:10129000202130180646FFF739FC3046FFF734FCB2
:1012A0000028FAD1F14881880D438580204677E7F0
:1012B000F7B582B002981446082802D30020C04334
:1012C0006EE78704EA4810383818FFF71DFC00075E
:1012D000000F012802D00420C04361E7002C19D080
:1012E000E4483818FFF710FC8006000CA04200D23A
:1012F0000446DF48203038180090DE4820383E1879
:10130000706A85B20098FFF7FFFB172815D01C28DC
:1013100003D00CE00D20C04342E7002D1AD1304627
:10132000FFF7F2FB7168800289B2884205D102980A
:10133000FFF796FD0620C04332E70299012088405E
:10134000CA494988084203D0002D03D1002027E76D
:10135000002DD5D0A54200D22C46224603990298F2
:10136000FFF702FCC248402138180546FFF7CEFBC4
:101370002846FFF7C9FB0028FAD1204610E7FFB541
:1013800087B007981E461546082803D30020C0439F
:101390000BB0F0BD8404B64810382018FFF7B4FB3A
:1013A0000007000F022804D0042802D00420C04304
:1013B000EEE7002D0FD03178727809028918B278E3
:1013C00009028918F2780902D14207D1042805D010
:1013D0000B20C043DCE70D20C043D9E7109900295A
:1013E00004D1042802D00A20C043D1E7A04820300D
:1013F00020180746FFF788FB422804D0222802D095
:101400000620C043C4E79B483178F9382018FFF71D
:101410007DFB98487178FA382018FFF777FB9548DC
:10142000B178FB382018FFF771FB9248F178FC384F
:101430002018FFF76BFB8E491098F0316118086295
:101440008C48203820180090FFF75EFB8006000CC7
:10145000854200D9054607990120884005900098EB
:10146000406886B23846FFF74FFB002808D07F4916
:1014700005984988084206D0B54204D9002087E77C
:101480000320C04384E7B542E9D82A460899079863
:10149000FFF756FB7648202120180746FFF736FB5A
:1014A0007348183026183846FFF72EFB0028FAD16B
:1014B0006F48103024182046FFF726FBC006C00EE8
:1014C000C10605D530461021FFF720FB28465FE70F
:1014D0000007F0D530460821FFF718FB0C20C04369
:1014E00056E7FFB5002485B00646082802D3601EE3
:1014F00009B0F0BD5E48B50410382818FFF704FBAA
:1015000004900007000F022804D0042802D0042011
:10151000C043EDE70798002805D057487700C05B27
:10152000002803D022E00D20C043E1E751482038D5
:10153000281803904E48203028180125B540029005
:101540000398406A84B20298FFF7DEFA002806D0BA
:1015500046484088054207D0002C03D006E003200F
:10156000C043C5E70020C3E7002CE9D03F48002175
:10157000801D81550498B20441073D48490F151854
:1015800002291FD004295FD021463046FFF71AFBFD
:101590003948C45328464021FFF7B8FA2846FFF7D8
:1015A000B3FA0028FAD13448C15B091B0904090CBD
:1015B000C15305D02D480122801D815D1143815505
:1015C000204695E72C4CE05B002832D10822694682
:1015D0003046FFF7C9FA28464021FFF797FA284618
:1015E000FFF792FA0028FAD168460178089801704E
:1015F00068464178089841706846817808988170FB
:101600006846C1780898C17068460E9900790880CC
:1016100001026846407908180E990880684680796A
:1016200001026846C0790818E05310498020891DDE
:101630008855E45B0798844200D904462246304628
:101640000699FFF791FAA5E70B4CE05B002829D13A
:10165000022269463046FFF787FA28464021FFF705
:1016600055FA2846FFF750FA002807E01800002036
:101670001000014620020146A8000020F1D1684672
:101680000078010268464078081880B2A449E05307
:10169000884204D93046FFF7E3FBA24828E7A24975
:1016A00080208855E45B0798844200D9044622468E
:1016B00030460699FFF76CFA6CE7F8B51446064613
:1016C000082802D30020C043F8BD974B97489B1FC2
:1016D0000927B2045D88FF4310180B0002F09CFC40
:1016E0000805171B1D252E37314021780120B040F9
:1016F000012902D0002905D032E08B49891F2843F7
:1017000048802BE08849891F85434D8026E0F540BD
:10171000E807C00F19E0864801E08548203010181E
:10172000FFF7F2F98002208018E020781F2817D8F0
:10173000C1067E48C90E001D10180DE07B48001F31
:101740001018FFF7E1F9C006C00E207006E02178FE
:101750001F2905D8C906C90EFFF7D8F90120F8BD21
:101760003846F8BDF8B51546082802D30020C04316
:10177000F8BD84046E4B6D4A6C48803BDC322438E3
:101780000427E618A2182018FF430B0002F044FCBF
:10179000084F050910421316444F64482978E43075
:1017A00002E062482978E0302018FFF7AFF931E015
:1017B000288810612EE0288810622BE0FFF7A4F93A
:1017C0000007000F01282DD13046FFF79DF90028B2
:1017D00002D00120C043F8BD5448222114382018FB
:1017E0000546FFF793F95148001F26180DE03046D3
:1017F000FFF78AF9000708D54C480821001D20187A
:10180000FFF784F90C20C043F8BD2846FFF77CF9A8
:101810000028ECD10120F8BDFFF776F90007000F92
:10182000012801D03846F8BD29783046BDE70920A7
:10183000C043F8BDF8B514460646082802D3002078
:10184000C043F8BDB5043948384A394B2438DC3236
:10185000EF182818AA180B0002F0DEFB0D080D1275
:101860001517305E323E404248525E00FFF74CF999
:101870000009000102E02D48E43033E020703DE033
:101880002A48E0302EE01069F8E72948D9382818AE
:10189000FFF73AF920702648DA382818FFF734F9AC
:1018A00060702348DB382818FFF72EF9A070204815
:1018B000DC382818FFF728F9E0701FE0106A1CE0F8
:1018C000FFF722F90007000F01281FD118488038C0
:1018D0002818FFF719F910E078680EE0786A0CE034
:1018E00012480C302818FFF70FF9C7E7FFF70CF97B
:1018F0000128F3D00F497000085A20800120F8BD5C
:10190000FFF702F90007000F012802D00420C043AE
:10191000F8BD0548805DB1E70120C043F8BD000077
:10192000EC05000017FCFFFF1E000020240001460C
:1019300000020146A80000207047704770477047BA
:101940000078704701707047002070477047FE4A6A
:10195000002804D0002902D0D16090607047FB4875
:101960009060FB48D0607047F74A002804D00029F7
:1019700002D0516110617047F6481061F64850611D
:10198000704710B5F04A1388DC05FDD5002804D057
:10199000002902D0D161906110BDF0489061F048FB
:1019A000D06110BD10B5E84A13889C05FDD500280C
:1019B00004D0002902D0D161906110BDE948906146
:1019C000E948D06110BD0020C04370470020C043EB
:1019D000704710B5E548FFF797F80446E348103024
:1019E000FFF792F80002001980B210BD10B5C1B225
:1019F000040A09090901DD48FFF788F8DB48214698
:101A00001030FFF783F810BDD84810B5001FFFF75E
:101A10007BF80446D5480C30FFF776F80002001931
:101A200080B210BD10B5C1B2040AD048090909013D
:101A3000001DFFF76BF8CD4821460C30FFF766F824
:101A400010BDF0B593B0CA48FFF75EF81190C848D2
:101A5000401EFFF759F8C64C1090A41E2046FFF711
:101A600053F8651E0F902846FFF74EF80E90A01D04
:101A7000FFF74AF80D90601DFFF746F80C90BC4840
:101A80000830FFF741F80B90B948C01DFFF73CF84C
:101A9000B74E0A90B61D3046FFF736F80990E01DA4
:101AA000FFF732F80890B01DFFF72EF80790701D71
:101AB000FFF72AF80690301DFFF726F80590F01C76
:101AC000FFF722F80490AA481030FFF71DF8A84F3E
:101AD00003900F373846FFF717F80290781EFFF78C
:101AE00013F80190F01DFFF70FF800908021A14836
:101AF000FFF70CF89F48FFF707F8A01C1199FFF7B4
:101B000005F8601C1099FFF701F820460F99FEF7C1
:101B1000FDFF28460E99FEF7F9FFA01D0D99FEF76F
:101B2000F5FF601D0C99FEF7F1FFB01C0B99FEF755
:101B3000EDFF701C0A99FEF7E9FF30460999FEF7A0
:101B4000E5FFE01D0899FEF7E1FFB01D0799FEF7DC
:101B5000DDFF701D0699FEF7D9FF301D0599FEF7D0
:101B6000D5FFF01C0499FEF7D1FF781C0399FEF70E
:101B7000CDFF38460299FEF7C9FF781E0199FEF79E
:101B8000C5FFF01D0099FEF7C1FF13B0F0BDF8B519
:101B90000D4606460024FFF754FF002E14D0002205
:101BA000B05C521C001952B244B2082AF8DB102C67
:101BB00017DC714F0024A004315DC019FEF7A6FFA9
:101BC000641C64B2082CF6DB002D19D000210846F5
:101BD0002A5C401C511840B249B20828F8DB102991
:101BE00002DD0020C043F8BD634E00242036A0046F
:101BF000295D8019FEF78AFF641C64B2082CF6DBAD
:101C00000020F8BD70B50C460246002108464D1E66
:101C1000130002F001FA0906091511181C2E2E20D6
:101C20002E00FFF70EFF22E0002C02D021462046B6
:101C30000831FFF7ACFF70BD2088FFF7F3FE16E018
:101C4000FFF7E2FE05E02088FFF7D0FE0FE0FFF788
:101C5000C0FE20800BE03C4882782270C27862701F
:101C60000279A2704279E27080792071617100205E
:101C700070BD284670BD10B504463D484130FEF7A2
:101C800043FF20703A483D300068608010BD10B5B9
:101C90000446017836484130FEF738FF3449608801
:101CA0003D31086010BD10B53248FEF72DFF10BD64
:101CB00070B50446C720044202D00020C04370BD66
:101CC0002C4D2846FEF720FF204301462846FEF70C
:101CD0001DFF002070BD10B504462548FEF714FF17
:101CE00020702348401EFEF70FFF60702048801EC2
:101CF000FEF70AFFA0701E48C01EFEF705FFE07049
:101D00001B48001DFEF700FF20711948C01CFEF79C
:101D1000FBFE607116480830FEF7F6FEA07314480B
:101D2000C01DFEF7F1FEE0731148801DFEF7ECFECA
:101D300020740F48401DFEF7E7FE60740C480C301D
:101D4000FEF7E2FEA07219E0300000203919000011
:101D50003B1900003D1900003F1900004119000027
:101D600045190000491900004D19000004210046E2
:101D70000360004600230046000201465F480B3026
:101D8000FEF7C2FEE0725D480A30FEF7BDFE20732A
:101D90005A480930FEF7B8FE607358481030FEF715
:101DA000B3FEA07155480F30FEF7AEFEE071534808
:101DB0000E30FEF7A9FE207250480D30FEF7A4FE4B
:101DC00060724F480178A1744178E174817821757F
:101DD000C07860754A48401E0078A07510BD10B5E7
:101DE000044601784548FEF791FE44486178401E5C
:101DF000FEF78CFE4148A178801EFEF787FE3F4823
:101E0000E178C01EFEF782FE3C482179001DFEF7F6
:101E10007DFE3A486179C01CFEF778FE3748A17B09
:101E20000830FEF773FE3548E17BC01DFEF76EFEFD
:101E30003248217C801DFEF769FE3048617C401DE0
:101E4000FEF764FE2D48A17A0C30FEF75FFE2B48AA
:101E5000E17A0B30FEF75AFE2848217B0A30FEF764
:101E600055FE2648617B0930FEF750FE2348A179D4
:101E70001030FEF74BFE2148E1790F30FEF746FEA9
:101E80001E48217A0E30FEF741FE1C48617A0D3063
:101E9000FEF73CFE1A48A17C0170E17C4170217D77
:101EA0008170617DC1701649A07D491E087010BD0A
:101EB00010B50C46030002F0AFF80604080C10142D
:101EC000181D0846FFF78BFF12E00846FFF703FFD7
:101ED0000EE00878FFF7ECFE10BDFFF7E4FE20707F
:101EE00006E00846FFF7D3FE02E00846FFF7C3FE10
:101EF000002010BD0020C04310BD0000036000465C
:101F00002900002010B5FE4CFE482178FEF7FEFDAA
:101F1000FC486178401EFEF7F9FDFA48A178801E62
:101F2000FEF7F4FDF748E178C01EFEF7EFFDF54837
:101F300008342178001FFEF7E9FDF2486178401F60
:101F4000FEF7E4FDEF48A178801FFEF7DFFDED48C6
:101F5000E178C01FFEF7DAFDEA48241F217808382F
:101F6000FEF7D4FDE74861780938FEF7CFFDE54874
:101F7000A1780A38FEF7CAFDE248E1780B38FEF78F
:101F8000C5FD10BD10B5E04C80212046FEF7BEFD1A
:101F90002046FEF7B9FDFFF7B5FFD94CD9483534D7
:101FA00021781038FEF7B2FDD64861781138FEF777
:101FB000ADFDD448A1781238FEF7A8FDD148E178EC
:101FC0001338FEF7A3FDCF4821790C38FEF79EFDAC
:101FD000CC4861790D38FEF799FD10BD10B5CA4C9B
:101FE00080212046FEF792FD2046FEF78DFDC44C71
:101FF000C448353421781038FEF788FDC14861782F
:102000001138FEF783FDBF48A1781238FEF77EFD38
:10201000BC48E1781338FEF779FDBA4821790C38CD
:10202000FEF774FDB74861790D38FEF76FFD10BDFE
:10203000B34B10B5DB1FB54C5C62B54C9C62B54C24
:10204000DC62002800D05862002900D09962002A82
:1020500000D0DA6210BD30B5A94B0120DB1F996BAF
:1020600008704870062088700020C8705A6B120EE5
:102070000A715A6B120C4A719A8E120A8A719A8EE0
:10208000CA71996B802208818A72C872996B1A464C
:10209000087348738873C873087448748874C87464
:1020A000087548758875C875087648768876C87644
:1020B0003C3214780C7754784C7794788C77D478B9
:1020C000CC770C461579203425705279627006223F
:1020D0008C18521CD2B22077102AF9D39A6B0021A7
:1020E00054182034491CC9B220734029F8D39A6B84
:1020F000002154186034491CC9B220738029F8D3D8
:10210000986B6321E0300173822242735322827301
:10211000C17330BDFEB5FFF79EFF79483522C01F61
:10212000836BF021CA540122F121CA54F221CA540E
:102130003D22F321CA540722F421CA540122F52179
:10214000CA5401463C310A78F621CA5401463C3152
:102150004A78F721CA5402463C329478F822D45483
:1021600002463C32D478F922D45402463C321479E7
:10217000FA22D45402463C325479FB22D4540C2126
:10218000FC22D1540027FD21CF54122204463946A7
:10219000423406E09E18E036521C491C357392B258
:1021A00089B2655C002DF5D1846B554BA61835338B
:1021B000DD78E0363573521C92B2A6181D79E036F0
:1021C0003573521C92B2A5185B79E0352B73521C03
:1021D00092B2CB1C511A0919E0310B72816B372373
:1021E0008C18E0342373521C92B28C18521C92B299
:1021F0008D180623E03423730124E0352C73521C20
:1022000092B28D180324E035521C2C7392B28C18B4
:10221000E0342373521C92B28C180F23E0342373E2
:10222000521C92B28B183A24E0331C73521C92B2A7
:102230008B18E0333B24521C1C7392B2FF238C1882
:10224000E0342373521CFF2492B2393404E08D1819
:10225000E035521C2F7392B2A242F8D369460B713B
:102260004B718B71CB71432100918922816B01AB42
:1022700092008078FFF783F8FEBDFEB5FFF7EBFE16
:102280001F4C0020E41FE11D20560B462933FF2779
:1022900003284AD0042848D06846077147718771DF
:1022A000C771A26B3520F025A8540120F125A85450
:1022B0000320F225A8543D20F325A8540720F42537
:1022C000A8540120F525A8540D48F625353000788E
:1022D000A8540B48F72535304078A8540848F8250D
:1022E00035308078A8540648F9253530C078A85490
:1022F0000348FA2535300079A854014835300BE001
:10230000570000201360004600230046051F000010
:10231000851F0000DD1F00004079FB25A8546D4695
:10232000ED791020FF2D16D039E0A06B00228272CB
:10233000C2720A7802734A7842738A788273CA78C2
:10234000C2731A78684602715A7842719A7882711B
:10235000DA78C271A5E73225FC2085540425FD20DA
:1023600085540E78FE2086544E78FF208654887857
:10237000AE01B054C978701C81543621401C815480
:10238000401C85541978401C81545978401C815454
:102390009978401C8154D978401C81541C20131812
:1023A0000C21E0331973401C13180021E03319731A
:1023B000F94D401C05E01618E036401C337380B21E
:1023C000491C6B5C002BF6D1A36BF34A1E18921FBD
:1023D000D578E0363573401C80B21E181579E0368A
:1023E0003573401C80B21D185279E0352A73401CA9
:1023F00082B2C81C511AC918E0310872A06B37218B
:102400008318E0331973521C91B243180822E03349
:102410001A73491C89B243180122E0331A73491C0C
:1024200089B243180322E0331A73491C89B2431856
:102430000622E0331A73491C89B243180F22E03395
:102440001A73491C89B242183A23E0321373491CAB
:1024500089B242183B23E032491C137389B24218F7
:102460001F23E0321373491C89B242182123E03242
:102470001373491C89B24218E0321773491C0022B9
:10248000FF2389B2393303E04518E0352A73491C2C
:102490009942F9DB43200090892201AB9200A07899
:1024A000A16BFEF76CFFFEBD1CB5FFF7D4FDBA486B
:1024B00000214238806B35228172C172F0210A54AA
:1024C0000122F1210A540422F2210A543D23F3216E
:1024D0000B540722F4210A540122F5210A54AE4973
:1024E000F622891F0B7813544B78F72213548B78FC
:1024F000F8221354CB78F92213540B79FA2213548F
:102500004A79FB210A543222FC210A540422FD217B
:102510000A54A1493B390A78FE210A549E493B39A5
:102520004A78FF210A549C493B398A78FF210131BE
:102530000A5499493B39CA78FF2102310A5436229C
:10254000491C0A540422491C0A549349FF22123997
:102550000B78053213544B78521C13548B78521C51
:102560001354CA78FF2108310A54FF22491C0A5427
:102570001D210023FF2239324418E034491C237303
:102580009142F9DBFF206946087148718871C87172
:1025900043200090804889224238816B01AB920031
:1025A0008078FEF7ECFE1CBD7FB57B4C7B4A423C3D
:1025B000A07881048918496A0A04120C27D001A95D
:1025C000009102ABA16BFEF78CFF82B26846808857
:1025D00043283CD1A06B21463C31037F0D78AB42B0
:1025E00015D1457F4B789D4211D1837F8D78AB42C9
:1025F0000DD1C37FCD78AB4209D1034620331D787E
:102600000E79B54203D15B7849798B4202D0002024
:1026100004B070BDF03000258118F03915E0027863
:10262000332A3ED008DC002A15D0012A18D0032A0C
:102630001AD0062A06D125E0352A0ED0362A3FD0F8
:10264000FF2A06D04278801C80188842E7D368B2FF
:10265000DEE70846F9E7401CF7E78578C01CF4E799
:102660004D4A8378333A2EE04B4A43788678373A9E
:102670001670C6785670067996704679801DD670A9
:10268000C0180CE0444B427886782F3B1E70C67809
:102690005E7006799E704679801DDE708018001F7E
:1026A000D3E78278A261C37812029A18A2610379F3
:1026B00012029A18A261437912029A18A26109E0E3
:1026C000354A8378123A1370C37853700379937044
:1026D0004379D370801DB8E72F4800214238C1618B
:1026E000052202624170704770B52B4C0125423CB7
:1026F0006157002622469057022917DAE269216ABB
:10270000914223D2012804D0022805D0042805D103
:1027100002E0FFF7FFFC01E0FFF7AFFDE661E069D3
:10272000401D20626078401C60700FE0012804D0DA
:10273000022805D0042807D102E02670002503E016
:10274000FFF7E8FC01202070FFF7C6FF284670BDA8
:10275000F8B5134E3046FEF7D7F90546032130464B
:10276000FEF7D4F90C4B0F483B3BDC1F00901122C5
:102770000DA1A078FEF703FE074629463046FEF776
:10278000C5F90D371AD0FFF78FFEE069E169091A24
:102790000229FBD30020F8BD920000200002014670
:1027A0004460004688130000434845434B5F49504E
:1027B0005F434F4E464C4943540000000120EAE776
:1027C000F8B5B74C207806281ED0A078B54980040B
:1027D0004018FEF799F9222805D00023442202214F
:1027E000A078FEF76DFB0125FFF7DEFEC1B20022E7
:1027F000A256AB4800260127C01D130001F00CFCB7
:1028000005060D1C314C2F000520C4E706704670EC
:102810008670C670FFF77EFC5EE002291CD1A16BBA
:102820000A7C02704A7C42708A7C8270C97CC170CA
:10283000FFF723FD02204BE005290BD1FFF788FFAE
:10284000002801D0606A3FE0FFF746FFE06A80475A
:10285000267004E006293DD0FFF746FF05462846CE
:1028600099E7A16904254A1CF9D0E2694908914217
:10287000F5D28B490278C91C0A7042784A70827876
:102880008A70C078C870606B401C6063FFF7F5FC0D
:10289000FFF722FF04201BE004250529DAD1804937
:1028A0006670C91C0A7803789A420BD14A7843783B
:1028B0009A4207D18A7883789A4203D1C978C0783E
:1028C000814202D0A06A03258047FFF705FF03205D
:1028D0002070C4E7FFF700FF2770C0E710B5704C09
:1028E000A078FEF7BDFA0620207010BDF3B56E4F3C
:1028F00083B00646002538460095FEF705F9684C7A
:102900003C342070781EFEF7FFF86070B81EFEF7AA
:10291000FBF8A070F81EFEF7F7F8E070381DFEF720
:10292000F3F82071F81CFEF7EFF86071014620788B
:102930006278E3781043A2781A4310432279104357
:1029400008431FD1257008206070DC20A070E5705E
:102950002571294665713846FEF7D8F86178781EEA
:10296000FEF7D4F8A178B81EFEF7D0F8E178F81E8B
:10297000FEF7CCF82179381DFEF7C8F86179F81C0C
:10298000FEF7C4F8464F4949BE700498B863E07832
:102990006379421821798A1848409A18584080185B
:1029A00078636846017840480C461030FEF7AEF870
:1029B00068464078029001463B480F30FEF7A6F883
:1029C000684680780190014637480E30FEF79EF841
:1029D0006846C678344831460D30FEF797F83248DD
:1029E00021461030FEF792F82F4802990F30FEF77B
:1029F0008DF82D4801990E30FEF788F82A483146A7
:102A00000D30FEF783F8284821460830FEF77EF89F
:102A100025480299C01DFEF779F823480199801DC9
:102A2000FEF774F820483146401DFEF76FF8FFF7B7
:102A300053FE3D7005B0F0BD1948C169491CC16124
:102A400070471749C91D0A7802704A7842708A781F
:102A50008270C978C170704711490B310A780270D1
:102A60004A7842708A788270C978C17070470C4980
:102A70000F310A7802704A7842708A788270C97879
:102A8000C1707047064913310A7802704A78427063
:102A90008A788270C978C170704701488069704730
:102AA0005000002030000146036000467856341282
:102AB000FFB5A5B005461646802104A800F005FE26
:102AC000F848AC042018FEF71FF800287DD0132822
:102AD0007CD0172802D01C2879D17DE0F14810382D
:102AE0002018FEF711F8C00732D0EE48F730201852
:102AF000FEF70AF8694608700390EA48F630201895
:102B0000FEF702F8694648700746E648F530201897
:102B1000FDF7FAFF694606468870E248F43020184F
:102B2000FDF7F2FF6946C870DE49D0316118096AC5
:102B3000019089B202913B4600962946DAA0039A99
:102B400000F0AAFBD748012108382018FDF7DEFF66
:102B5000DE482018406A0204120C5AD00120C0023C
:102B6000824200D9024628462699FEF7A1FB00289A
:102B700029DDD7A0269900F08FFB9022D549284661
:102B8000FEF706FB04001AD4D3A104A82E9B289AB2
:102B900000F090FB04A800F017FD82B204A92846BB
:102BA000FEF7F6FA04000AD4802104A800F08DFD97
:102BB0001222D6A12846FEF7EBFA040008D52846D3
:102BC000FEF74EF9204629B0F0BD1AE00EE020E0F5
:102BD0002846FEF79BFA1CE02846FEF797FA0128E4
:102BE000F1D12946CEA000F057FB12E0324629462B
:102BF000D0A000F051FB2846FEF7CDF90128E2D124
:102C000007E00023324601212846FEF759F9A84281
:102C1000D9D10020D7E770B50121C9031124A4063A
:102C20004D100028204606D0FDF7BBFD2946204662
:102C3000FDF7B7FD70BDFDF7C5FD29462046FDF740
:102C4000C1FD70BD70B505460120FDF7F3FA2846B9
:102C5000FDF7FBFAFDF7FDFAFDF702FB044602461D
:102C60002946BDA000F018FB0020FDF7E3FA20463E
:102C700070BD10B5C2A103C986B0049103900622AD
:102C800003A9C14800F0C2FCBF4C0220A075214638
:102C90000020FFF70DF9E078627921796B4607C3D0
:102CA000A37862782178B9A000F0F6FA607A0090F3
:102CB000237AE279A179BFA000F0EEFA607C00905F
:102CC000237CE27BA17BC0A000F0E6FA607B009051
:102CD000237BE27AA17AC1A000F0DEFA607D009049
:102CE000237DE27CA17CC2A000F0D6FA06B010BD24
:102CF00070477047A44810B5801DFFF7A2FEA24898
:102D00000E30FFF7A9FEA0480A30FFF7B0FE9E483C
:102D10001230FFF7B7FE9C490020FFF7C9F810BD3D
:102D20001FB50026FDF767FAFDF75AFA7D21C900A5
:102D300000F0CDFCB3490024401E88420BD8B249B4
:102D40004861B2480722C3691B021B0A4D042B438A
:102D5000C3618C610A61FDF743FAAD4900F0B7FC2D
:102D6000AC4908606846FDF718FEE1204002FDF717
:102D700044FE0120FDF74BFEFDF732FA0090684655
:102D8000447140210171C47102218171A24F6946D1
:102D90003846FDF7D5FB01213846FDF70BFC0C2129
:102DA0006846017244720125857202A8FEF730F868
:102DB00001213846FDF7AAFB2802009068460471FD
:102DC00006200290684611270473BF0669463846FC
:102DD000FDF771FC03208003009068460571032015
:102DE00002906846057369463846FDF764FC002387
:102DF0001A460121894800F04FFAFDF7F4F901461F
:102E000087A000F049FAFDF7EBF9014689A000F030
:102E100043FAFDF7CBFF012816D08BA18DA000F05F
:102E20003BFA8FA000F038FAFFF723FF9649002005
:102E3000FFF75CFD954A96499648FFF7F9F8524826
:102E4000807D022802D014E093A1E7E796A000F06D
:102E500023FAFFF7B5FC042802D0002802D003E0D3
:102E600095A004E0761CF6B2032EF2D996A000F0ED
:102E700013FA98A000F010FAFFF7FBFE9FA000F0F5
:102E80000BFAFF27A54EF5370720FFF7DBFE80B2D0
:102E90007080B84204D920463470FFF7BCFE3FE191
:102EA00040E100003000014625643A436F6E6E65D4
:102EB00063746564202D2025642E25642E25642EE0
:102EC0002564203A2025640D0A0000000002014616
:102ED0002573000030420000536F696C204D6F7302
:102EE000747572652069732025643C6272202F3EE0
:102EF0002050756D70207374617475732069732030
:102F000025643C2F62723E0D0A0000003C2F626F68
:102F100064793E0D0A3C2F68746D6C3E0D0A00000A
:102F200025643A536F636B657420436C6F736564FB
:102F30000D0A000025643A4C697374656E2C2057A5
:102F40006562207365727665722C20706F727420D2
:102F50005B25645D0D0A00004144435F476574438F
:102F60006F6E76657273696F6E56616C7565203A27
:102F7000205B25645D203A2025642C0D0A000000AA
:102F80000001DB0E0C0A0000B80800204D41433A56
:102F900020253032583A253032583A253032583AC6
:102FA000253032583A253032583A253032580D0AF9
:102FB0000000000049503A2025642E25642E256427
:102FC0002E25640D0A00000047573A2025642E255F
:102FD000642E25642E25640D0A000000534E3A200D
:102FE00025642E25642E25642E25640D0A0000001C
:102FF000444E533A2025642E25642E25642E2564E4
:103000000D0A0000FFFFFF0000E000E004ED00E01B
:10301000102700000020004600100040C4420000BD
:10302000536F75726365436C6F636B203A20256440
:103030000D0A000053797374656D436C6F636B20E8
:103040003A2025640D0A00004E6574776F726B207C
:103050004F6666004C696E6B203A2025730D0A009E
:103060004E6574776F726B2064657461696C732050
:103070006265666F7220444843502068616E6473D5
:1030800068616B650D0A0000B8000020F12C00009B
:10309000F32C0000F52C00004361626C6520636F27
:1030A0006E6E656374656400537461727420444885
:1030B00043500D0A000000004448435020537563FC
:1030C000636573730D0A00004448435020466169EC
:1030D0006C0D0A004E6574776F726B2064657461C5
:1030E000696C73206166746572204448435020689F
:1030F000616E647368616B650D0A000053746172E0
:1031000074696E672072656164696E672066726FAC
:103110006D2073656E736F72730D0A009C00002042
:1031200010A004E028463570FFF775FD14A000F0EC
:10313000B3F8307800907388502217490120FFF7C8
:10314000B7FCA1E601B51548009941604168002926
:10315000FCD108BD11484168002902D04168491ED0
:10316000416070475368757474696E6720646F7747
:103170006E2069727269676174696F6E0D0A000072
:103180005374617274696E672069727269676174E1
:10319000696F6E0D0A000000B80000209C0000203E
:1031A00010B50446FDF753FC204610BDC0B2F7E74A
:1031B00010B5204841688907FCD5FDF74EFCC0B228
:1031C00010BD10B5FFF7F4FFFFF7EAFF10BD0020B8
:1031D000C043704710B5C0B2FDF739FC10BDFEE723
:1031E00070B50D460446FDF724FCA0690007FCD429
:1031F000284670BD70B50C4606462578002D03D0D4
:1032000029463046FFF7ECFF641C002DF5D170BD58
:103210008169C906FCD40068C0B2704770B5044625
:103220002578002D02D02846FDF711FC641C002DE6
:10323000F6D170BD0060004070477047704770471E
:1032400010B5FFF787FF10BD704770477047704794
:1032500070477047704770477047704710B50C4C07
:103260002046FDF7B0F9002804D02046FDF7AEF95E
:10327000FFF7E2FB10BD704770477047704770471B
:103280007047704770477047704770477047704786
:1032900000100040704700000FB4054910B503AAA4
:1032A000029800F065FE10BC08BC04B0184700008E
:1032B000A40000200FB41CB5074B06AA7B44694646
:1032C0000090059800F025FE0020694600F034FECD
:1032D0001CBC08BC04B01847790C000070B504464B
:1032E00085690068C10601D5302600E02026C007A8
:1032F00007D070BD62683046A1689047206A401CC4
:1033000020626D1EF6D570BD70B5044685690078E3
:10331000C00707D170BD6268A16820209047206A6D
:10332000401C20626D1EF6D570BD70B50C4605467A
:10333000012A05D02878800600D5EA69002302E03A
:10334000012305E05B1C934202D2E05C0028F9D126
:10335000A869E618C01AA861286AC0182862284619
:10336000FFF7BCFF04E06A682078A968641C9047F6
:10337000B442F8D32846FFF7C7FF70BDF7B5002564
:1033800075291068009914A611D0C046C0460028BF
:1033900002DA404211A608E0009909688A0701D5BF
:1033A0000FA602E0490704D50EA6012501E0C0469C
:1033B000C046009F0024243704E000F0EDFD3031CA
:1033C0003955641C0028F8D12B4632462146009816
:1033D00000F042FDFEBD0000000000002D000000D6
:1033E0002B0000002000000070B504460D46214669
:1033F0001068C046C0462188090502D50F4A7A44A4
:1034000002E00E4A7A440E3223460021243305E0BE
:1034100006070009360F965D5E54491C0028F7D157
:1034200020780023000705D5702D03D0002901D096
:1034300002231132204600F00FFD70BDB20D0000D6
:10344000F3B50446002081B020622046E168884739
:10345000002872D0252802D06268A168ABE0594FDD
:1034600000267F442046E16888472028054608DB7F
:10347000312D06D2781920380078002801D0064373
:10348000F0E7B00701D5042086430020E06107463D
:10349000A0612A2D0AD0284600F0CBFD002827D0B5
:1034A000B8000019303D0090856119E00298BA001B
:1034B000121902C8916102902046E1688847012FE5
:1034C000054617D1E06900281FDA202086431CE05A
:1034D00000980A2180694843009940193038886172
:1034E0002046E1688847054600F0A3FD0028EFD19B
:1034F000012F0AD02E2D08D12046E16888470546C5
:10350000202006437F1C022FC3DBA069002803DABA
:103510004042A06101200643F00701D010208643FD
:103520006C2D0BD0682D09D04C2D3CD06A2D38D095
:10353000742D38D07A2D36D016E040E0E1682F4661
:1035400020468847B842054609D16C2F29D0012072
:103550008002E168064320468847054604E06C2F58
:103560001DD0FF2001300643002D28D028464138C9
:10357000192803D80120C0020643203520462660C2
:103580002946029A1646FCF7CDFD002810D00128E6
:103590000BD0F61DF008C0000830029055E740201F
:1035A000E1E78020D5E70020D3E7361D02964CE7FF
:1035B00062682846A1689047206A401C44E7206A58
:1035C000FEBD0000760D000030B5441C03E001781C
:1035D000401C00290DD08107F9D10B4BDD0104C837
:1035E000D11A91432940FAD0001B0A0603D0C01E0D
:1035F00030BD001B30BD0A0401D0801E30BD090261
:10360000FCD0401E30BD000001010101F8B5042AC4
:103610002CD3830712D00B78491C0370401C521E18
:1036200083070BD00B78491C0370401C521E830784
:1036300004D00B78491C0370401C521E8B079B0F53
:1036400005D0C91ADF002023DE1B08C90AE0FCF7F9
:103650008FFDF8BD1D4608C9FD401C46B4402C43F3
:1036600010C0121F042AF5D2F308C91A521EF0D452
:103670000B78491C0370401C521EEAD40B78491C7D
:103680000370401C012AE4D409780170F8BD01E000
:1036900004C0091F0429FBD28B0701D50280801CBE
:1036A000C90700D00270704700290BD0C30702D0B1
:1036B0000270401C491E022904D3830702D50280F0
:1036C000801C891EE3E70022EEE70022DFE70022EC
:1036D00003098B422CD3030A8B4211D300239C464F
:1036E0004EE003460B433CD4002243088B4231D3C7
:1036F00003098B421CD3030A8B4201D394463FE05B
:10370000C3098B4201D3CB01C01A524183098B42BA
:1037100001D38B01C01A524143098B4201D34B01A3
:10372000C01A524103098B4201D30B01C01A524106
:10373000C3088B4201D3CB00C01A524183088B428D
:1037400001D38B00C01A524143088B4201D34B0076
:10375000C01A5241411A00D20146524110467047E8
:103760005DE0CA0F00D04942031000D340425340ED
:1037700000229C4603098B422DD3030A8B4212D3AD
:10378000FC22890112BA030A8B420CD389019211DF
:103790008B4208D3890192118B4204D389013AD01C
:1037A000921100E08909C3098B4201D3CB01C01AF1
:1037B000524183098B4201D38B01C01A5241430904
:1037C0008B4201D34B01C01A524103098B4201D3F2
:1037D0000B01C01A5241C3088B4201D3CB00C01A5F
:1037E000524183088B4201D38B00C01A5241D9D277
:1037F00043088B4201D34B00C01A5241411A00D2F8
:103800000146634652415B10104601D34042002BF3
:1038100000D54942704763465B1000D3404201B572
:103820000020C046C04602BD704770477047000088
:10383000F0B50C46871A9C410D46861A9D4103D26D
:10384000C01BA141D21963410D0D1F0DC94EEC1BC8
:10385000AE435CD07F057F0D0026002F51D02D0593
:10386000AC46A943DD020123ED0A1B051D432023BD
:103870001B1B24D41746E740381871412F46E740F8
:10388000CC199D402818314661410C0D27D1614467
:103890009A4013D50023401C594152000ED14008D4
:1038A000400001224B005205D34207D305204007B8
:1038B000C14201D5B04900E0B0493046F0BD6B00CF
:1038C000002A00D001229A181F23203C1B1B01D57F
:1038D000002302E0E540281871410C0DD7D00124E7
:1038E00024050919C407CD0740084908E40F2843F7
:1038F0006144002CD5D00024401C61419A40D0D1B5
:10390000CDE76A05520DD9D1C90FC907D5E79C4D3E
:103910004E00002801D0012400E0002434195F008B
:10392000002A01D0012600E00026BE19954FAC42C6
:103930000CD8AE420AD8B44206D001256D05EC423F
:10394000BCD010461946F0BD9942FCD00020394643
:10395000F0BDF0B51FB40C460F46811A9F412546B5
:10396000861A9D4106D20125ED076F40401ABC41E1
:1039700052187B41210D1E0D8D1BAC467D4D8D4394
:103980007ED075056D0D7CD00D05AE46AC431B0396
:103990001B0B794D52429D41202366469B1B14D33D
:1039A0001746F740381800260090744160462F46AD
:1039B0000741E41900989D402818664116D47146C5
:1039C00071189A4025D5012320E093182A466A41B0
:1039D0005200002B00D0521C1E23203E9B1B002BAC
:1039E00061DD3541EE1728186641E8D500187641AB
:1039F0005B1C9A4000D3401C4B05F3181524E34090
:103A000010D3002B52D071467118D30FC01802D3B7
:103A1000491C05B0F0BD0123DB079A42F9D14008EB
:103A20004000F6E701225205B21801D1002853D018
:103A30000123CC0ADB029943891E002A08D1020C1B
:103A400003D0020C0004103902E0024600202039A5
:103A50000023550B05D112020823550B01D1520149
:103A60000D23550C01D112011B1DD50C01D1920063
:103A70009B1C150D01D152005B1C2025EE1A01E0A4
:103A80002CE022E00546F54015439840CA1AE107AC
:103A900069181305C918002ABBDA03204007081863
:103AA000C10FC9070FE071466118B2E7F10740087E
:103AB0000843711071444A000CD001235B059A42FF
:103AC000A7D2C90FC9070020A3E74905490D26D190
:103AD000002001E00028F4D100219AE7284D66007B
:103AE000002801D0012100E0002171185F00002AA8
:103AF00001D0012600E00026BE19224FA94210D8AD
:103B0000AE420ED8B14208D001256D05E94206D07B
:103B10001946A802414010467BE79C4201D021464D
:103B200077E70020394674E710B50C465C4005D5B0
:103B30000124E4076340FFF70CFF10BDFFF778FE98
:103B400010BD30B40C465C4004D50124E40763404A
:103B500030BC6DE630BCFCE670B50124E407614082
:103B60000D465D4002D4FFF763FE70BD6340FFF772
:103B7000F0FE70BDFF0700000000F0FF0000F07FC6
:103B80000000E0FF0000F87F0346CA02400D10B5B8
:103B900010430A1504D00124E4072043002A05DB62
:103BA0000A4CA21A04D4D040FF2A00DD002010BD28
:103BB0004A00002B01D0012000E000201018012253
:103BC0005205D042F2D8C817C04310BD1E040000F1
:103BD0000121C9050123411842001B06D3185B0EC1
:103BE0000AD0C1100722D206891840075242D1429A
:103BF00001D5520089187047090208D50146002AEC
:103C000003D0C10FC9070020704710467047420219
:103C100002D0002002497047072109050143F4E75B
:103C20000000F87FF0B5FF252D04C609C209FF2763
:103C300004462E400137CB093E4348402A402B40E2
:103C40000746002A6BD0002B69D0AA4267D0AB424E
:103C500065D0002800DA32460125ED0529432C43C2
:103C600009022002090AD21A4B0C7F24E31A434CA2
:103C7000000A7C44E35C7D242404121914145B00C4
:103C8000A218884201D3521C00E0400049420C4671
:103C90005C4324115C43DB016415E318040A5C43B4
:103CA000C502200D0C4644436419250A5D432303D5
:103CB000EC0C0D46654300030019EB184C42A3427F
:103CC00001D35B18401CD4052018002B07D05B00E3
:103CD000C91804D3401C002901D1400840003F21ED
:103CE00089048A4209D3002A08DC1106090F04D08E
:103CF000032149074018C00FC007F0BD0122410051
:103D0000120689187F2252069142F6D205214907F0
:103D1000C84201D59010F0BDFF20C005F0BD002FB6
:103D200000DA32461648AA4207D2AB4205D219023F
:103D3000090E17D0F80FC007F0BDFF2563002D0650
:103D4000AB42F9D84900A942F6D8AB4201D1A94209
:103D5000F2D0A94201D1002101E061004908D0055B
:103D60000843F0BD1102090EFBD0FF200243D0052D
:103D7000F0BD0A460146104654E7000077050000F2
:103D80000000C07F0102C21504D00123DB071943E4
:103D9000002A0ADB9E239A1A02D40846D0407047B4
:103DA000FF2241001206914201D900207047C0173E
:103DB000C04370471F22030C02D10F2200041CD005
:103DC000030E01D10002083A030F01D10001121FB6
:103DD000830F01D18000921E002801DB4000521E9B
:103DE000D2055118021251181922904004D3491CCF
:103DF000002801D14908490008467047C10FC9078A
:103E000000D04042012292071143D3E701218907E4
:103E1000D0E7000010B5FF22C30D134009D05A406F
:103E200007D0914205DA5C42A14202DDC9050818BB
:103E300010BDC40FE407002B06D0002A06D00029CD
:103E400002DBFF20C0050443204610BD4102FCD028
:103E5000004810BD0000C07FFFB504460D4681B08C
:103E6000243000902168880604D51022E06991432F
:103E7000216000E00120A84201DD471B00E000278F
:103E80000498A1697A191018081AA0612078C00650
:103E900002D42046FFF722FA002608E00398626861
:103EA000A168805D9047206A401C761C20620498BF
:103EB0008642F3DB2078C0060AD52046FFF70EFACB
:103EC00006E06268A16830209047206A401C2062AA
:103ED00038467F1E0028F4DC07E000986268A1687D
:103EE000405D9047206A401C206228466D1E0028D5
:103EF000F3DC2046FFF708FA2078000602D50220FE
:103F000005B0F0BD0120FBE701694A1C0261087899
:103F1000704700B58FB002910021059105490193CA
:103F200079440391114604906846FFF789FA0FB06F
:103F300000BD0000E5FFFFFF0A681070521C0A6018
:103F4000704710B54369002B02D0C046C04601E05F
:103F5000FFF7EBF9012010BD1278014624310A70F9
:103F600000224A700122ECE711680022D243E8E700
:103F7000084B70B50D467B44FFF7CBFF044628463F
:103F8000FFF725F9002802D00020C04370BD20466D
:103F900070BD000033F2FFFF01468008081A0209D5
:103FA0001018020A1018020C1018C008820012180B
:103FB0005200891A01E0401C0A390A29FBD27047D5
:103FC000754600F025F8AE46050069465346C00820
:103FD000C000854618B020B5FCF7F0F860BC00279B
:103FE0004908B6460026C0C5C0C5C0C5C0C5C0C5C5
:103FF000C0C5C0C5C0C5403D49008D46704710B51D
:104000000446C046C0462046FCF7ABF810BD000091
:1040100000487047D008002030B47446641E2578EC
:10402000641CAB4200D21D46635D5B00E31830BCEC
:10403000184730380A2801D2012070470020704705
:1040400070B501250400ED074C4020D4441A01D27C
:10405000001B0919C60D4B00F2B2FF2A29D01B0E16
:104060002CD000020C02D31A2C43DC402843051943
:1040700010D2280A02D3401C6D0611D0761EF60518
:104080008019FF2A00DA70BDC00DC00570BD6940FF
:1040900000F02EF801200543C541521C761CE8E7CC
:1040A00064089C40C90161408900E7D10124A04314
:1040B000E4E71B0E440200D0034870BD002AFCD187
:1040C000C00FC00770BD00BF0000C07F70B50125E4
:1040D000ED07684004004C4002D5694000F008F844
:1040E000FFF7B4FF70B501250400ED074C4022D462
:1040F000441A02D26C40001B0919C60D4B00F2B2E3
:10410000FF2A4BD01B0E50D000020C02D31A2C43B6
:10411000DC40A843051B05D5AD0019D36D08761EFC
:10412000521E37D0F605280A01D2801970BD7041A1
:104130006D0603D070BD6940FFF788FF9C400902FF
:104140006140490001D0401E70BD0124A04370BDF4
:104150006D081DD001202B0C01D12D0410302B0E29
:1041600001D12D0208302B0F01D12D01001DAB0F05
:1041700001D1AD00801CEB0F01D16D00401C6D0022
:10418000361A121A680AF5054019012A02DB70BDB9
:10419000002070BDC036300AC00770BD1B0E44023F
:1041A00001D1FF2B00D1024870BD002AF0D070BDB4
:1041B0000000C07F30313233343536373839414230
:1041C0004344454640305800303132333435363779
:1041D0003839616263646566403078000400000825
:1041E0000000000000000002000100001081828336
:1041F0008485868788898B8C8D8E8F9192939596F6
:1042000097999A9C9D9FA0A2A3A5A7A8AAACAEB07F
:10421000B2B3B5B7B9BCBEC0C2C5C7C9CCCED1D484
:10422000D7D9DCDFE2E6E9ECF0F3F7FAFE000000B4
:10423000485454502F312E3120323030204F4B0D06
:104240000A436F6E74656E742D547970653A2074EC
:104250006578742F68746D6C0D0A436F6E6E6563BC
:1042600074696F6E3A20636C6F73650D0A526566F0
:10427000726573683A20350D0A0D0A3C21444F439C
:10428000545950452048544D4C3E0D0A3C68746DBD
:104290006C3E0D0A203C5469746C653E2053656584
:1042A00064204E7572736572792056312E303C2F22
:1042B0005469746C653E0D0A3C626F64793E0D0A68
:1042C0000000000053555246352057697A6E6574D8
:1042D00020436F6E74657374207769746820573754
:1042E000353078205374616E646172642050657259
:1042F0006970686572616C204C69627261727920C4
:1043000076657273696F6E203A2025642E25642EBF
:1043100025640D0A00000000384300000000002062
:10432000A8000000EC000000E0430000A80000200E
:1043300088100000080100000000000000000000DC
:10434000000000000000000000000000000000006D
:1043500000C000000000000000000000000000009D
:104360000000000000000000010157373530300028
:10437000391900003B1900003D1900003F190000E9
:104380004119000045190000000000000000000075
:10439000000000000000000000000000000000001D
:1043A000FFFFFFFF0000000005000000051F0000E8
:1043B000851F0000DD1F000000000000000000005D
:1043C0000000000000000000000057495A6E6574AC
:1043D00000000000000000000000000000000000DD
:04000005000000A94E
:00000001FF
